{
  "contractName": "Main",
  "abi": [
    {
      "constant": false,
      "inputs": [],
      "name": "renounceOwnership",
      "outputs": [],
      "payable": false,
      "stateMutability": "nonpayable",
      "type": "function",
      "signature": "0x715018a6"
    },
    {
      "constant": true,
      "inputs": [],
      "name": "owner",
      "outputs": [
        {
          "name": "",
          "type": "address"
        }
      ],
      "payable": false,
      "stateMutability": "view",
      "type": "function",
      "signature": "0x8da5cb5b"
    },
    {
      "constant": true,
      "inputs": [],
      "name": "isOwner",
      "outputs": [
        {
          "name": "",
          "type": "bool"
        }
      ],
      "payable": false,
      "stateMutability": "view",
      "type": "function",
      "signature": "0x8f32d59b"
    },
    {
      "constant": false,
      "inputs": [
        {
          "name": "newOwner",
          "type": "address"
        }
      ],
      "name": "transferOwnership",
      "outputs": [],
      "payable": false,
      "stateMutability": "nonpayable",
      "type": "function",
      "signature": "0xf2fde38b"
    },
    {
      "anonymous": false,
      "inputs": [
        {
          "indexed": true,
          "name": "user",
          "type": "address"
        },
        {
          "indexed": false,
          "name": "x",
          "type": "uint256"
        },
        {
          "indexed": false,
          "name": "y",
          "type": "uint256"
        }
      ],
      "name": "KeyRegistered",
      "type": "event",
      "signature": "0xe75c69e03d16578859c2d6970c59af779cdbb15064bd20fb13b8fb6d59450726"
    },
    {
      "anonymous": false,
      "inputs": [
        {
          "indexed": true,
          "name": "user",
          "type": "address"
        },
        {
          "indexed": false,
          "name": "x",
          "type": "uint256"
        },
        {
          "indexed": false,
          "name": "y",
          "type": "uint256"
        },
        {
          "indexed": true,
          "name": "token",
          "type": "address"
        },
        {
          "indexed": false,
          "name": "amount",
          "type": "uint128"
        }
      ],
      "name": "Deposit",
      "type": "event",
      "signature": "0x508982b75b84bc9a8a2967d1c2cba38016d566bef29221f597ce59270a3b9b47"
    },
    {
      "anonymous": false,
      "inputs": [
        {
          "indexed": true,
          "name": "user",
          "type": "address"
        },
        {
          "indexed": true,
          "name": "token",
          "type": "address"
        },
        {
          "indexed": false,
          "name": "amount",
          "type": "uint128"
        }
      ],
      "name": "Withdraw",
      "type": "event",
      "signature": "0xf7c94207a71e9e28815faa70ca42021f47a1d25c25fbec0973eb7beb92f42192"
    },
    {
      "anonymous": false,
      "inputs": [
        {
          "indexed": false,
          "name": "oldState",
          "type": "uint256"
        },
        {
          "indexed": false,
          "name": "newState",
          "type": "uint256"
        }
      ],
      "name": "StateUpdated",
      "type": "event",
      "signature": "0x210cbb60935822c957f36bfad9f082e34516b470d608565d6e21abfd2d771beb"
    },
    {
      "anonymous": false,
      "inputs": [
        {
          "indexed": false,
          "name": "oldState",
          "type": "uint256"
        },
        {
          "indexed": false,
          "name": "rejectedState",
          "type": "uint256"
        }
      ],
      "name": "StateRejected",
      "type": "event",
      "signature": "0x91def8b0fd14ae62d6671c9fccdddab96f5ac9c89c69ecfd897a1a5f9b9f33be"
    },
    {
      "anonymous": false,
      "inputs": [
        {
          "indexed": true,
          "name": "previousOwner",
          "type": "address"
        },
        {
          "indexed": true,
          "name": "newOwner",
          "type": "address"
        }
      ],
      "name": "OwnershipTransferred",
      "type": "event",
      "signature": "0x8be0079c531659141344cd1fd0a4f28419497f9722a3daafe3b4186f6b6457e0"
    },
    {
      "constant": false,
      "inputs": [
        {
          "name": "x",
          "type": "uint256"
        },
        {
          "name": "y",
          "type": "uint256"
        }
      ],
      "name": "registerKey",
      "outputs": [],
      "payable": true,
      "stateMutability": "payable",
      "type": "function",
      "signature": "0x41a89c57"
    },
    {
      "constant": true,
      "inputs": [
        {
          "name": "_user",
          "type": "address"
        }
      ],
      "name": "getKey",
      "outputs": [
        {
          "name": "",
          "type": "uint256"
        },
        {
          "name": "",
          "type": "uint256"
        }
      ],
      "payable": false,
      "stateMutability": "view",
      "type": "function",
      "signature": "0x93790f44"
    },
    {
      "constant": true,
      "inputs": [],
      "name": "getMyKey",
      "outputs": [
        {
          "name": "",
          "type": "uint256"
        },
        {
          "name": "",
          "type": "uint256"
        }
      ],
      "payable": false,
      "stateMutability": "view",
      "type": "function",
      "signature": "0x9798fd6e"
    },
    {
      "constant": false,
      "inputs": [],
      "name": "depositEther",
      "outputs": [],
      "payable": true,
      "stateMutability": "payable",
      "type": "function",
      "signature": "0x98ea5fca"
    },
    {
      "constant": false,
      "inputs": [],
      "name": "withdrawEther",
      "outputs": [],
      "payable": true,
      "stateMutability": "payable",
      "type": "function",
      "signature": "0x7362377b"
    },
    {
      "constant": false,
      "inputs": [
        {
          "name": "_token",
          "type": "address"
        },
        {
          "name": "_amount",
          "type": "uint128"
        }
      ],
      "name": "depositToken",
      "outputs": [],
      "payable": false,
      "stateMutability": "nonpayable",
      "type": "function",
      "signature": "0xad895d7e"
    },
    {
      "constant": false,
      "inputs": [
        {
          "name": "_token",
          "type": "address"
        },
        {
          "name": "_recipient",
          "type": "address"
        },
        {
          "name": "_amount",
          "type": "uint128"
        },
        {
          "name": "_proof",
          "type": "uint256"
        },
        {
          "name": "_newState",
          "type": "uint256"
        }
      ],
      "name": "withdrawToken",
      "outputs": [],
      "payable": false,
      "stateMutability": "nonpayable",
      "type": "function",
      "signature": "0xae9dc5e6"
    },
    {
      "constant": true,
      "inputs": [],
      "name": "getState",
      "outputs": [
        {
          "name": "",
          "type": "uint256"
        }
      ],
      "payable": false,
      "stateMutability": "view",
      "type": "function",
      "signature": "0x1865c57d"
    },
    {
      "constant": false,
      "inputs": [
        {
          "name": "_newState",
          "type": "uint256"
        }
      ],
      "name": "setState",
      "outputs": [],
      "payable": false,
      "stateMutability": "nonpayable",
      "type": "function",
      "signature": "0xa9e966b7"
    },
    {
      "constant": false,
      "inputs": [
        {
          "name": "a",
          "type": "uint256[2]"
        },
        {
          "name": "b",
          "type": "uint256[2][2]"
        },
        {
          "name": "c",
          "type": "uint256[2]"
        },
        {
          "name": "_newState",
          "type": "uint256"
        }
      ],
      "name": "verifyDeposit",
      "outputs": [
        {
          "name": "",
          "type": "bool"
        }
      ],
      "payable": false,
      "stateMutability": "nonpayable",
      "type": "function",
      "signature": "0x6c246285"
    },
    {
      "constant": false,
      "inputs": [
        {
          "name": "_newAddress",
          "type": "address"
        }
      ],
      "name": "setDepositVerifier",
      "outputs": [],
      "payable": false,
      "stateMutability": "nonpayable",
      "type": "function",
      "signature": "0x2c6ce78b"
    },
    {
      "constant": false,
      "inputs": [
        {
          "name": "_newAddress",
          "type": "address"
        }
      ],
      "name": "setTransferVerifier",
      "outputs": [],
      "payable": false,
      "stateMutability": "nonpayable",
      "type": "function",
      "signature": "0xec845f96"
    },
    {
      "constant": false,
      "inputs": [
        {
          "name": "_newAddress",
          "type": "address"
        }
      ],
      "name": "setWithdrawVerifier",
      "outputs": [],
      "payable": false,
      "stateMutability": "nonpayable",
      "type": "function",
      "signature": "0xb0ca3126"
    }
  ],
  "bytecode": "0x6080604052336000806101000a81548173ffffffffffffffffffffffffffffffffffffffff021916908373ffffffffffffffffffffffffffffffffffffffff1602179055506000809054906101000a900473ffffffffffffffffffffffffffffffffffffffff1673ffffffffffffffffffffffffffffffffffffffff16600073ffffffffffffffffffffffffffffffffffffffff167f8be0079c531659141344cd1fd0a4f28419497f9722a3daafe3b4186f6b6457e060405160405180910390a3611f40806100cf6000396000f3fe6080604052600436106100f1576000357c0100000000000000000000000000000000000000000000000000000000900463ffffffff1680631865c57d146100f65780632c6ce78b1461012157806341a89c57146101725780636c246285146101aa578063715018a6146102f95780637362377b146103105780638da5cb5b1461031a5780638f32d59b1461037157806393790f44146103a05780639798fd6e1461040c57806398ea5fca1461043e578063a9e966b714610448578063ad895d7e14610483578063ae9dc5e6146104f0578063b0ca312614610591578063ec845f96146105e2578063f2fde38b14610633575b600080fd5b34801561010257600080fd5b5061010b610684565b6040518082815260200191505060405180910390f35b34801561012d57600080fd5b506101706004803603602081101561014457600080fd5b81019080803573ffffffffffffffffffffffffffffffffffffffff16906020019092919050505061068e565b005b6101a86004803603604081101561018857600080fd5b8101908080359060200190929190803590602001909291905050506106e5565b005b3480156101b657600080fd5b506102df60048036036101208110156101ce57600080fd5b8101908080604001906002806020026040519081016040528092919082600260200280828437600081840152601f19601f82011690508083019250505050505091929192908060800190600280602002604051908101604052809291906000905b82821015610283578382604002016002806020026040519081016040528092919082600260200280828437600081840152601f19601f8201169050808301925050505050508152602001906001019061022f565b50505050919291929080604001906002806020026040519081016040528092919082600260200280828437600081840152601f19601f8201169050808301925050505050509192919290803590602001909291905050506107f8565b604051808215151515815260200191505060405180910390f35b34801561030557600080fd5b5061030e610b54565b005b610318610c26565b005b34801561032657600080fd5b5061032f610cae565b604051808273ffffffffffffffffffffffffffffffffffffffff1673ffffffffffffffffffffffffffffffffffffffff16815260200191505060405180910390f35b34801561037d57600080fd5b50610386610cd7565b604051808215151515815260200191505060405180910390f35b3480156103ac57600080fd5b506103ef600480360360208110156103c357600080fd5b81019080803573ffffffffffffffffffffffffffffffffffffffff169060200190929190505050610d2e565b604051808381526020018281526020019250505060405180910390f35b34801561041857600080fd5b50610421610dc0565b604051808381526020018281526020019250505060405180910390f35b610446610e51565b005b34801561045457600080fd5b506104816004803603602081101561046b57600080fd5b8101908080359060200190929190505050610e97565b005b34801561048f57600080fd5b506104ee600480360360408110156104a657600080fd5b81019080803573ffffffffffffffffffffffffffffffffffffffff16906020019092919080356fffffffffffffffffffffffffffffffff169060200190929190505050610eb4565b005b3480156104fc57600080fd5b5061058f600480360360a081101561051357600080fd5b81019080803573ffffffffffffffffffffffffffffffffffffffff169060200190929190803573ffffffffffffffffffffffffffffffffffffffff16906020019092919080356fffffffffffffffffffffffffffffffff169060200190929190803590602001909291908035906020019092919050505061158f565b005b34801561059d57600080fd5b506105e0600480360360208110156105b457600080fd5b81019080803573ffffffffffffffffffffffffffffffffffffffff1690602001909291905050506119c0565b005b3480156105ee57600080fd5b506106316004803603602081101561060557600080fd5b81019080803573ffffffffffffffffffffffffffffffffffffffff169060200190929190505050611a17565b005b34801561063f57600080fd5b506106826004803603602081101561065657600080fd5b81019080803573ffffffffffffffffffffffffffffffffffffffff169060200190929190505050611a6e565b005b6000600754905090565b610696610cd7565b15156106a157600080fd5b80600860006101000a81548173ffffffffffffffffffffffffffffffffffffffff021916908373ffffffffffffffffffffffffffffffffffffffff16021790555050565b604080519081016040528083815260200182815250600360003373ffffffffffffffffffffffffffffffffffffffff1673ffffffffffffffffffffffffffffffffffffffff16815260200190815260200160002060008201518160000155602082015181600101559050503373ffffffffffffffffffffffffffffffffffffffff167fe75c69e03d16578859c2d6970c59af779cdbb15064bd20fb13b8fb6d594507268383604051808381526020018281526020019250505060405180910390a260003411156107f45734600260003373ffffffffffffffffffffffffffffffffffffffff1673ffffffffffffffffffffffffffffffffffffffff168152602001908152602001600020819055505b5050565b6000610802610cd7565b151561080d57600080fd5b60006108256002600454611a8d90919063ffffffff16565b905061082f611ef0565b61018060405190810160405280600754815260200160045481526020016005600081548110151561085c57fe5b90600052602060002001600081548110151561087457fe5b906000526020600020015481526020016005600081548110151561089457fe5b9060005260206000200160018154811015156108ac57fe5b90600052602060002001548152602001600560018154811015156108cc57fe5b9060005260206000200160008154811015156108e457fe5b906000526020600020015481526020016005600181548110151561090457fe5b90600052602060002001600181548110151561091c57fe5b906000526020600020015481526020016006600081548110151561093c57fe5b906000526020600020015481526020016006600181548110151561095c57fe5b906000526020600020015481526020016001815260200160018152602001858152602001838152509050600860009054906101000a900473ffffffffffffffffffffffffffffffffffffffff1673ffffffffffffffffffffffffffffffffffffffff16638cbac0fa888888856040518563ffffffff167c01000000000000000000000000000000000000000000000000000000000281526004018085600260200280838360005b83811015610a1e578082015181840152602081019050610a03565b505050509050018460026000925b81841015610a725782846020020151600260200280838360005b83811015610a61578082015181840152602081019050610a46565b505050509050019260010192610a2c565b9250505083600260200280838360005b83811015610a9d578082015181840152602081019050610a82565b5050505090500182600c60200280838360005b83811015610acb578082015181840152602081019050610ab0565b5050505090500194505050505060206040518083038186803b158015610af057600080fd5b505afa158015610b04573d6000803e3d6000fd5b505050506040513d6020811015610b1a57600080fd5b81019080805190602001909291905050501515610b3657600080fd5b610b406000611aae565b610b4a6001611aae565b5050949350505050565b610b5c610cd7565b1515610b6757600080fd5b600073ffffffffffffffffffffffffffffffffffffffff166000809054906101000a900473ffffffffffffffffffffffffffffffffffffffff1673ffffffffffffffffffffffffffffffffffffffff167f8be0079c531659141344cd1fd0a4f28419497f9722a3daafe3b4186f6b6457e060405160405180910390a360008060006101000a81548173ffffffffffffffffffffffffffffffffffffffff021916908373ffffffffffffffffffffffffffffffffffffffff160217905550565b3373ffffffffffffffffffffffffffffffffffffffff166108fc600260003373ffffffffffffffffffffffffffffffffffffffff1673ffffffffffffffffffffffffffffffffffffffff168152602001908152602001600020549081150290604051600060405180830381858888f19350505050158015610cab573d6000803e3d6000fd5b50565b60008060009054906101000a900473ffffffffffffffffffffffffffffffffffffffff16905090565b60008060009054906101000a900473ffffffffffffffffffffffffffffffffffffffff1673ffffffffffffffffffffffffffffffffffffffff163373ffffffffffffffffffffffffffffffffffffffff1614905090565b600080600360008473ffffffffffffffffffffffffffffffffffffffff1673ffffffffffffffffffffffffffffffffffffffff16815260200190815260200160002060000154600360008573ffffffffffffffffffffffffffffffffffffffff1673ffffffffffffffffffffffffffffffffffffffff1681526020019081526020016000206001015491509150915091565b600080600360003373ffffffffffffffffffffffffffffffffffffffff1673ffffffffffffffffffffffffffffffffffffffff16815260200190815260200160002060000154600360003373ffffffffffffffffffffffffffffffffffffffff1673ffffffffffffffffffffffffffffffffffffffff16815260200190815260200160002060010154915091509091565b34600260003373ffffffffffffffffffffffffffffffffffffffff1673ffffffffffffffffffffffffffffffffffffffff16815260200190815260200160002081905550565b610e9f610cd7565b1515610eaa57600080fd5b8060078190555050565b6000600160003373ffffffffffffffffffffffffffffffffffffffff1673ffffffffffffffffffffffffffffffffffffffff16815260200190815260200160002060008473ffffffffffffffffffffffffffffffffffffffff1673ffffffffffffffffffffffffffffffffffffffff16815260200190815260200160002060009054906101000a90046fffffffffffffffffffffffffffffffff166fffffffffffffffffffffffffffffffff16141515610ffc576040517f08c379a00000000000000000000000000000000000000000000000000000000081526004018080602001828103825260238152602001807f4f6e6c79206f6e65206465706f7369742070657220746f6b656e20666f72206e81526020017f6f7721000000000000000000000000000000000000000000000000000000000081525060400191505060405180910390fd5b806fffffffffffffffffffffffffffffffff168273ffffffffffffffffffffffffffffffffffffffff1663dd62ed3e33306040518363ffffffff167c0100000000000000000000000000000000000000000000000000000000028152600401808373ffffffffffffffffffffffffffffffffffffffff1673ffffffffffffffffffffffffffffffffffffffff1681526020018273ffffffffffffffffffffffffffffffffffffffff1673ffffffffffffffffffffffffffffffffffffffff1681526020019250505060206040518083038186803b1580156110dc57600080fd5b505afa1580156110f0573d6000803e3d6000fd5b505050506040513d602081101561110657600080fd5b81019080805190602001909291905050501015151561118d576040517f08c379a00000000000000000000000000000000000000000000000000000000081526004018080602001828103825260148152602001807f4e6f7420656e6f75676820616c6c6f77616e636500000000000000000000000081525060200191505060405180910390fd5b61125c816fffffffffffffffffffffffffffffffff16600160003373ffffffffffffffffffffffffffffffffffffffff1673ffffffffffffffffffffffffffffffffffffffff16815260200190815260200160002060008573ffffffffffffffffffffffffffffffffffffffff1673ffffffffffffffffffffffffffffffffffffffff16815260200190815260200160002060009054906101000a90046fffffffffffffffffffffffffffffffff166fffffffffffffffffffffffffffffffff16611a8d90919063ffffffff16565b506112d6600360003373ffffffffffffffffffffffffffffffffffffffff1673ffffffffffffffffffffffffffffffffffffffff16815260200190815260200160002060408051908101604052908160008201548152602001600182015481525050826fffffffffffffffffffffffffffffffff16611bb7565b8173ffffffffffffffffffffffffffffffffffffffff166323b872dd3330846040518463ffffffff167c0100000000000000000000000000000000000000000000000000000000028152600401808473ffffffffffffffffffffffffffffffffffffffff1673ffffffffffffffffffffffffffffffffffffffff1681526020018373ffffffffffffffffffffffffffffffffffffffff1673ffffffffffffffffffffffffffffffffffffffff168152602001826fffffffffffffffffffffffffffffffff1681526020019350505050602060405180830381600087803b1580156113bf57600080fd5b505af11580156113d3573d6000803e3d6000fd5b505050506040513d60208110156113e957600080fd5b8101908080519060200190929190505050151561146e576040517f08c379a00000000000000000000000000000000000000000000000000000000081526004018080602001828103825260158152602001807f546f6b656e207472616e73666572206661696c6564000000000000000000000081525060200191505060405180910390fd5b8173ffffffffffffffffffffffffffffffffffffffff163373ffffffffffffffffffffffffffffffffffffffff167f508982b75b84bc9a8a2967d1c2cba38016d566bef29221f597ce59270a3b9b47600360003373ffffffffffffffffffffffffffffffffffffffff1673ffffffffffffffffffffffffffffffffffffffff16815260200190815260200160002060000154600360003373ffffffffffffffffffffffffffffffffffffffff1673ffffffffffffffffffffffffffffffffffffffff168152602001908152602001600020600101548560405180848152602001838152602001826fffffffffffffffffffffffffffffffff166fffffffffffffffffffffffffffffffff168152602001935050505060405180910390a35050565b611597610cd7565b15156115a257600080fd5b826fffffffffffffffffffffffffffffffff16600160003373ffffffffffffffffffffffffffffffffffffffff1673ffffffffffffffffffffffffffffffffffffffff16815260200190815260200160002060008773ffffffffffffffffffffffffffffffffffffffff1673ffffffffffffffffffffffffffffffffffffffff16815260200190815260200160002060009054906101000a90046fffffffffffffffffffffffffffffffff166fffffffffffffffffffffffffffffffff16101515156116fc576040517f08c379a00000000000000000000000000000000000000000000000000000000081526004018080602001828103825260268152602001807f417474656d707420746f207769746864726177206d6f7265207468616e20757381526020017f657220686173000000000000000000000000000000000000000000000000000081525060400191505060405180910390fd5b6117cb836fffffffffffffffffffffffffffffffff16600160003373ffffffffffffffffffffffffffffffffffffffff1673ffffffffffffffffffffffffffffffffffffffff16815260200190815260200160002060008873ffffffffffffffffffffffffffffffffffffffff1673ffffffffffffffffffffffffffffffffffffffff16815260200190815260200160002060009054906101000a90046fffffffffffffffffffffffffffffffff166fffffffffffffffffffffffffffffffff16611dd490919063ffffffff16565b508473ffffffffffffffffffffffffffffffffffffffff1663a9059cbb33856040518363ffffffff167c0100000000000000000000000000000000000000000000000000000000028152600401808373ffffffffffffffffffffffffffffffffffffffff1673ffffffffffffffffffffffffffffffffffffffff168152602001826fffffffffffffffffffffffffffffffff16815260200192505050602060405180830381600087803b15801561188157600080fd5b505af1158015611895573d6000803e3d6000fd5b505050506040513d60208110156118ab57600080fd5b81019080805190602001909291905050501515611930576040517f08c379a00000000000000000000000000000000000000000000000000000000081526004018080602001828103825260158152602001807f546f6b656e207472616e73666572206661696c6564000000000000000000000081525060200191505060405180910390fd5b8473ffffffffffffffffffffffffffffffffffffffff163373ffffffffffffffffffffffffffffffffffffffff167ff7c94207a71e9e28815faa70ca42021f47a1d25c25fbec0973eb7beb92f421928560405180826fffffffffffffffffffffffffffffffff166fffffffffffffffffffffffffffffffff16815260200191505060405180910390a35050505050565b6119c8610cd7565b15156119d357600080fd5b80600a60006101000a81548173ffffffffffffffffffffffffffffffffffffffff021916908373ffffffffffffffffffffffffffffffffffffffff16021790555050565b611a1f610cd7565b1515611a2a57600080fd5b80600960006101000a81548173ffffffffffffffffffffffffffffffffffffffff021916908373ffffffffffffffffffffffffffffffffffffffff16021790555050565b611a76610cd7565b1515611a8157600080fd5b611a8a81611df6565b50565b6000808284019050838110151515611aa457600080fd5b8091505092915050565b60028111151515611b27576040517f08c379a00000000000000000000000000000000000000000000000000000000081526004018080602001828103825260138152602001807f4f6e6c79203220696e64657820736c6f7473210000000000000000000000000081525060200191505060405180910390fd5b6000600582815481101515611b3857fe5b906000526020600020016000815481101515611b5057fe5b90600052602060002001819055506000600582815481101515611b6f57fe5b906000526020600020016001815481101515611b8757fe5b90600052602060002001819055506000600682815481101515611ba657fe5b906000526020600020018190555050565b600060056000815481101515611bc957fe5b906000526020600020016000815481101515611be157fe5b90600052602060002001541415611c8c57816000015160056000815481101515611c0757fe5b906000526020600020016000815481101515611c1f57fe5b9060005260206000200181905550816020015160056000815481101515611c4257fe5b906000526020600020016001815481101515611c5a57fe5b90600052602060002001819055508060066000815481101515611c7957fe5b9060005260206000200181905550611dd0565b600060056001815481101515611c9e57fe5b906000526020600020016000815481101515611cb657fe5b90600052602060002001541415611d6157816000015160056001815481101515611cdc57fe5b906000526020600020016000815481101515611cf457fe5b9060005260206000200181905550816020015160056001815481101515611d1757fe5b906000526020600020016001815481101515611d2f57fe5b90600052602060002001819055508060066001815481101515611d4e57fe5b9060005260206000200181905550611dcf565b6040517f08c379a00000000000000000000000000000000000000000000000000000000081526004018080602001828103825260128152602001807f4e6f20737061636520696e20517565756521000000000000000000000000000081525060200191505060405180910390fd5b5b5050565b6000828211151515611de557600080fd5b600082840390508091505092915050565b600073ffffffffffffffffffffffffffffffffffffffff168173ffffffffffffffffffffffffffffffffffffffff1614151515611e3257600080fd5b8073ffffffffffffffffffffffffffffffffffffffff166000809054906101000a900473ffffffffffffffffffffffffffffffffffffffff1673ffffffffffffffffffffffffffffffffffffffff167f8be0079c531659141344cd1fd0a4f28419497f9722a3daafe3b4186f6b6457e060405160405180910390a3806000806101000a81548173ffffffffffffffffffffffffffffffffffffffff021916908373ffffffffffffffffffffffffffffffffffffffff16021790555050565b61018060405190810160405280600c9060208202803883398082019150509050509056fea165627a7a723058209b3441f0b7b929645f4b59ce04edd4e543a1712468a9e0e07aa3e5e3cd03ab700029",
  "source": "pragma solidity 0.5.0;\n\nimport 'openzeppelin-solidity/contracts/ownership/Ownable.sol';\nimport 'openzeppelin-solidity/contracts/token/ERC20/ERC20.sol';\nimport 'openzeppelin-solidity/contracts/math/SafeMath.sol';\nimport './verifiers/IDepositVerifier.sol';\nimport './verifiers/ITransferVerifier.sol';\nimport './verifiers/IWithdrawVerifier.sol';\n\n contract Main is Ownable {\n    using SafeMath for uint256;\n    using SafeMath for uint128;\n\n    struct PublicKey {\n        uint256 x;\n        uint256 y;\n    }\n\n    mapping (address => mapping (address => uint128 )) tokenBalances;\n    mapping (address => uint256) etherBalances;\n    mapping (address => PublicKey) userKeys;\n    uint256 userCount;\n\n    uint256[][] publicKeyQueue;\n    uint256[] amountQueue;\n\n    uint256 constant tokenId = 1;\n\n    uint256 state;\n    IDepositVerifier depositVerifier;\n    ITransferVerifier transferVerifier;\n    IWithdrawVerifier withdrawVerifier;\n    \n    event KeyRegistered(address indexed user, uint256 x, uint256 y);\n    event Deposit(address indexed user, uint256 x, uint256 y, address indexed token, uint128 amount);\n    event Withdraw(address indexed user, address indexed token, uint128 amount);\n    event StateUpdated(uint256 oldState, uint256 newState);\n    event StateRejected(uint256 oldState, uint256 rejectedState);\n    \n    // User Functions\n\n    function registerKey(uint256 x, uint256 y) public payable {\n        // require(userKeys[msg.sender] == 0, \"User has existing key\");\n        userKeys[msg.sender] = PublicKey(x,y);\n        emit KeyRegistered(msg.sender, x, y);\n        \n        if (msg.value > 0) {\n            etherBalances[msg.sender] = msg.value;\n        }\n    }\n\n    function getKey(address _user) public view returns(uint256, uint256) {\n        return (userKeys[_user].x, userKeys[_user].y);\n    }\n    \n    function getMyKey() public view returns(uint256, uint256) {\n        return (userKeys[msg.sender].x, userKeys[msg.sender].y);\n    }\n    \n    function depositEther() public payable {\n        etherBalances[msg.sender] = msg.value;\n    }\n    \n    function withdrawEther() public payable {\n        msg.sender.transfer(etherBalances[msg.sender]);\n    }\n    \n    // Requires approval for ERC20 token first\n    function depositToken(address _token, uint128 _amount) public {\n        require(tokenBalances[msg.sender][_token] == 0, \"Only one deposit per token for now!\");\n        require(ERC20(_token).allowance(msg.sender, address(this)) >= _amount, \"Not enough allowance\");\n        \n        tokenBalances[msg.sender][_token].add(_amount);\n        addToQueue(userKeys[msg.sender], _amount);\n\n        require(ERC20(_token).transferFrom(msg.sender, address(this), _amount), \"Token transfer failed\");\n        emit Deposit(msg.sender, userKeys[msg.sender].x, userKeys[msg.sender].y, _token, _amount);\n    }\n\n    function addToQueue(PublicKey memory _publicKey, uint256 _amount) internal {\n        // If zero slot empty\n        if (publicKeyQueue[0][0] == 0) {\n            publicKeyQueue[0][0] = _publicKey.x;\n            publicKeyQueue[0][1] = _publicKey.y;\n            amountQueue[0] = _amount;\n        } \n        \n        // If one slot empty\n        else if (publicKeyQueue[1][0] == 0) {\n            publicKeyQueue[1][0] = _publicKey.x;\n            publicKeyQueue[1][1] = _publicKey.y;\n            amountQueue[1] = _amount;\n        }\n\n        else {\n            revert(\"No space in Queue!\");\n        }        \n    }\n\n    function clearQueueIndex(uint256 _index) internal {\n        require(_index <= 2, \"Only 2 index slots!\");\n        publicKeyQueue[_index][0] = 0;\n        publicKeyQueue[_index][1] = 0;\n        amountQueue[_index] = 0;\n    }\n    \n    function withdrawToken(address _token, address _recipient, uint128 _amount, uint256 _proof, uint256 _newState) public onlyOwner() {\n        //TODO: We will get this value from the state\n        require(tokenBalances[msg.sender][_token] >= _amount, \"Attempt to withdraw more than user has\");\n\n        tokenBalances[msg.sender][_token].sub(_amount);\n        require(ERC20(_token).transfer(msg.sender, _amount), \"Token transfer failed\");\n        emit Withdraw(msg.sender, _token, _amount);\n    }\n\n    // State Functions\n    function getState() public view returns(uint256) {\n        return state;\n    }\n\n    function setState(uint256 _newState) public onlyOwner() {\n        state = _newState;\n    }\n\n    // Input = Proof\n    function verifyDeposit(uint[2] memory a, uint[2][2] memory b, uint[2] memory c, uint256 _newState) public onlyOwner() returns(bool) {\n                uint256 _newUserCount = userCount.add(2);\n\n                uint256[12] memory input = [\n                state, \n                userCount, \n                publicKeyQueue[0][0], \n                publicKeyQueue[0][1], \n                publicKeyQueue[1][0], \n                publicKeyQueue[1][1], \n                amountQueue[0],\n                amountQueue[1],\n                tokenId,\n                tokenId,\n                _newState,\n                _newUserCount\n                ];\n\n                require(depositVerifier.verifyProof(a, b, c, input));\n                clearQueueIndex(0);\n                clearQueueIndex(1);\n            }\n\n    function setDepositVerifier(address _newAddress) public onlyOwner() {\n        depositVerifier = IDepositVerifier(_newAddress);\n    }\n\n    function setTransferVerifier(address _newAddress) public onlyOwner() {\n        transferVerifier = ITransferVerifier(_newAddress);\n    }\n\n    function setWithdrawVerifier(address _newAddress) public onlyOwner() {\n        withdrawVerifier = IWithdrawVerifier(_newAddress);\n    }\n}",
  "sourcePath": "/Users/thomas/Code/xRollup/ethereum/contracts/Main.sol",
  "compiler": {
    "name": "solc",
    "version": "0.5.0+commit.1d4f565a.Emscripten.clang"
  },
  "schemaVersion": "3.0.2",
  "updatedAt": "2019-03-10T03:45:23.925Z",
  "devdoc": {
    "methods": {
      "isOwner()": {
        "return": "true if `msg.sender` is the owner of the contract."
      },
      "owner()": {
        "return": "the address of the owner."
      },
      "renounceOwnership()": {
        "details": "Allows the current owner to relinquish control of the contract."
      },
      "transferOwnership(address)": {
        "details": "Allows the current owner to transfer control of the contract to a newOwner.",
        "params": {
          "newOwner": "The address to transfer ownership to."
        }
      }
    }
  },
  "userdoc": {
    "methods": {
      "renounceOwnership()": {
        "notice": "Renouncing to ownership will leave the contract without an owner. It will not be possible to call the functions with the `onlyOwner` modifier anymore."
      }
    }
  }
}