{
  "contractName": "Main",
  "abi": [
    {
      "constant": false,
      "inputs": [],
      "name": "renounceOwnership",
      "outputs": [],
      "payable": false,
      "stateMutability": "nonpayable",
      "type": "function",
      "signature": "0x715018a6"
    },
    {
      "constant": true,
      "inputs": [],
      "name": "owner",
      "outputs": [
        {
          "name": "",
          "type": "address"
        }
      ],
      "payable": false,
      "stateMutability": "view",
      "type": "function",
      "signature": "0x8da5cb5b"
    },
    {
      "constant": true,
      "inputs": [],
      "name": "isOwner",
      "outputs": [
        {
          "name": "",
          "type": "bool"
        }
      ],
      "payable": false,
      "stateMutability": "view",
      "type": "function",
      "signature": "0x8f32d59b"
    },
    {
      "constant": false,
      "inputs": [
        {
          "name": "newOwner",
          "type": "address"
        }
      ],
      "name": "transferOwnership",
      "outputs": [],
      "payable": false,
      "stateMutability": "nonpayable",
      "type": "function",
      "signature": "0xf2fde38b"
    },
    {
      "anonymous": false,
      "inputs": [
        {
          "indexed": true,
          "name": "user",
          "type": "address"
        },
        {
          "indexed": true,
          "name": "publicKey",
          "type": "uint256"
        }
      ],
      "name": "KeyRegistered",
      "type": "event",
      "signature": "0xf4537d5adbbf75716024737e134f58c5517cebebd162ac5123bb4597bbac74d9"
    },
    {
      "anonymous": false,
      "inputs": [
        {
          "indexed": true,
          "name": "user",
          "type": "address"
        },
        {
          "indexed": true,
          "name": "token",
          "type": "address"
        },
        {
          "indexed": false,
          "name": "amount",
          "type": "uint128"
        }
      ],
      "name": "Deposit",
      "type": "event",
      "signature": "0x2d22ec10582994161eb1eca889a0b6cfef06721c7cbc036243be9c77b55b1447"
    },
    {
      "anonymous": false,
      "inputs": [
        {
          "indexed": true,
          "name": "user",
          "type": "address"
        },
        {
          "indexed": true,
          "name": "token",
          "type": "address"
        },
        {
          "indexed": false,
          "name": "amount",
          "type": "uint128"
        }
      ],
      "name": "Withdraw",
      "type": "event",
      "signature": "0xf7c94207a71e9e28815faa70ca42021f47a1d25c25fbec0973eb7beb92f42192"
    },
    {
      "anonymous": false,
      "inputs": [
        {
          "indexed": false,
          "name": "oldState",
          "type": "uint256"
        },
        {
          "indexed": false,
          "name": "newState",
          "type": "uint256"
        }
      ],
      "name": "StateUpdated",
      "type": "event",
      "signature": "0x210cbb60935822c957f36bfad9f082e34516b470d608565d6e21abfd2d771beb"
    },
    {
      "anonymous": false,
      "inputs": [
        {
          "indexed": false,
          "name": "oldState",
          "type": "uint256"
        },
        {
          "indexed": false,
          "name": "rejectedState",
          "type": "uint256"
        }
      ],
      "name": "StateRejected",
      "type": "event",
      "signature": "0x91def8b0fd14ae62d6671c9fccdddab96f5ac9c89c69ecfd897a1a5f9b9f33be"
    },
    {
      "anonymous": false,
      "inputs": [
        {
          "indexed": true,
          "name": "previousOwner",
          "type": "address"
        },
        {
          "indexed": true,
          "name": "newOwner",
          "type": "address"
        }
      ],
      "name": "OwnershipTransferred",
      "type": "event",
      "signature": "0x8be0079c531659141344cd1fd0a4f28419497f9722a3daafe3b4186f6b6457e0"
    },
    {
      "constant": false,
      "inputs": [
        {
          "name": "_publicKey",
          "type": "uint256"
        }
      ],
      "name": "registerKey",
      "outputs": [],
      "payable": false,
      "stateMutability": "nonpayable",
      "type": "function",
      "signature": "0x889427a9"
    },
    {
      "constant": false,
      "inputs": [
        {
          "name": "_token",
          "type": "address"
        },
        {
          "name": "_amount",
          "type": "uint128"
        }
      ],
      "name": "depositToken",
      "outputs": [],
      "payable": false,
      "stateMutability": "nonpayable",
      "type": "function",
      "signature": "0xad895d7e"
    },
    {
      "constant": false,
      "inputs": [
        {
          "name": "_token",
          "type": "address"
        },
        {
          "name": "_recipient",
          "type": "address"
        },
        {
          "name": "_amount",
          "type": "uint128"
        },
        {
          "name": "_proof",
          "type": "uint256"
        },
        {
          "name": "_newState",
          "type": "uint256"
        }
      ],
      "name": "withdrawToken",
      "outputs": [],
      "payable": false,
      "stateMutability": "nonpayable",
      "type": "function",
      "signature": "0xae9dc5e6"
    },
    {
      "constant": true,
      "inputs": [],
      "name": "getState",
      "outputs": [
        {
          "name": "",
          "type": "uint256"
        }
      ],
      "payable": false,
      "stateMutability": "view",
      "type": "function",
      "signature": "0x1865c57d"
    },
    {
      "constant": false,
      "inputs": [
        {
          "name": "_newState",
          "type": "uint256"
        }
      ],
      "name": "setState",
      "outputs": [],
      "payable": false,
      "stateMutability": "nonpayable",
      "type": "function",
      "signature": "0xa9e966b7"
    }
  ],
  "bytecode": "0x6080604052336000806101000a81548173ffffffffffffffffffffffffffffffffffffffff021916908373ffffffffffffffffffffffffffffffffffffffff1602179055506000809054906101000a900473ffffffffffffffffffffffffffffffffffffffff1673ffffffffffffffffffffffffffffffffffffffff16600073ffffffffffffffffffffffffffffffffffffffff167f8be0079c531659141344cd1fd0a4f28419497f9722a3daafe3b4186f6b6457e060405160405180910390a36111da806100cf6000396000f3fe608060405260043610610099576000357c0100000000000000000000000000000000000000000000000000000000900463ffffffff1680631865c57d1461009e578063715018a6146100c9578063889427a9146100e05780638da5cb5b1461011b5780638f32d59b14610172578063a9e966b7146101a1578063ad895d7e146101dc578063ae9dc5e614610249578063f2fde38b146102ea575b600080fd5b3480156100aa57600080fd5b506100b361033b565b6040518082815260200191505060405180910390f35b3480156100d557600080fd5b506100de610345565b005b3480156100ec57600080fd5b506101196004803603602081101561010357600080fd5b8101908080359060200190929190505050610417565b005b34801561012757600080fd5b50610130610515565b604051808273ffffffffffffffffffffffffffffffffffffffff1673ffffffffffffffffffffffffffffffffffffffff16815260200191505060405180910390f35b34801561017e57600080fd5b5061018761053e565b604051808215151515815260200191505060405180910390f35b3480156101ad57600080fd5b506101da600480360360208110156101c457600080fd5b8101908080359060200190929190505050610595565b005b3480156101e857600080fd5b50610247600480360360408110156101ff57600080fd5b81019080803573ffffffffffffffffffffffffffffffffffffffff16906020019092919080356fffffffffffffffffffffffffffffffff169060200190929190505050610648565b005b34801561025557600080fd5b506102e8600480360360a081101561026c57600080fd5b81019080803573ffffffffffffffffffffffffffffffffffffffff169060200190929190803573ffffffffffffffffffffffffffffffffffffffff16906020019092919080356fffffffffffffffffffffffffffffffff1690602001909291908035906020019092919080359060200190929190505050610c16565b005b3480156102f657600080fd5b506103396004803603602081101561030d57600080fd5b81019080803573ffffffffffffffffffffffffffffffffffffffff169060200190929190505050611047565b005b6000600354905090565b61034d61053e565b151561035857600080fd5b600073ffffffffffffffffffffffffffffffffffffffff166000809054906101000a900473ffffffffffffffffffffffffffffffffffffffff1673ffffffffffffffffffffffffffffffffffffffff167f8be0079c531659141344cd1fd0a4f28419497f9722a3daafe3b4186f6b6457e060405160405180910390a360008060006101000a81548173ffffffffffffffffffffffffffffffffffffffff021916908373ffffffffffffffffffffffffffffffffffffffff160217905550565b6000600260003373ffffffffffffffffffffffffffffffffffffffff1673ffffffffffffffffffffffffffffffffffffffff168152602001908152602001600020541415156104ce576040517f08c379a00000000000000000000000000000000000000000000000000000000081526004018080602001828103825260158152602001807f5573657220686173206578697374696e67206b6579000000000000000000000081525060200191505060405180910390fd5b80600260003373ffffffffffffffffffffffffffffffffffffffff1673ffffffffffffffffffffffffffffffffffffffff1681526020019081526020016000208190555050565b60008060009054906101000a900473ffffffffffffffffffffffffffffffffffffffff16905090565b60008060009054906101000a900473ffffffffffffffffffffffffffffffffffffffff1673ffffffffffffffffffffffffffffffffffffffff163373ffffffffffffffffffffffffffffffffffffffff1614905090565b61059d61053e565b15156105a857600080fd5b6105b181611066565b15610603577f210cbb60935822c957f36bfad9f082e34516b470d608565d6e21abfd2d771beb60035482604051808381526020018281526020019250505060405180910390a180600381905550610645565b7f91def8b0fd14ae62d6671c9fccdddab96f5ac9c89c69ecfd897a1a5f9b9f33be60035482604051808381526020018281526020019250505060405180910390a15b50565b6000600160003373ffffffffffffffffffffffffffffffffffffffff1673ffffffffffffffffffffffffffffffffffffffff16815260200190815260200160002060008473ffffffffffffffffffffffffffffffffffffffff1673ffffffffffffffffffffffffffffffffffffffff16815260200190815260200160002060009054906101000a90046fffffffffffffffffffffffffffffffff166fffffffffffffffffffffffffffffffff16141515610790576040517f08c379a00000000000000000000000000000000000000000000000000000000081526004018080602001828103825260238152602001807f4f6e6c79206f6e65206465706f7369742070657220746f6b656e20666f72206e81526020017f6f7721000000000000000000000000000000000000000000000000000000000081525060400191505060405180910390fd5b806fffffffffffffffffffffffffffffffff168273ffffffffffffffffffffffffffffffffffffffff1663dd62ed3e33306040518363ffffffff167c0100000000000000000000000000000000000000000000000000000000028152600401808373ffffffffffffffffffffffffffffffffffffffff1673ffffffffffffffffffffffffffffffffffffffff1681526020018273ffffffffffffffffffffffffffffffffffffffff1673ffffffffffffffffffffffffffffffffffffffff1681526020019250505060206040518083038186803b15801561087057600080fd5b505afa158015610884573d6000803e3d6000fd5b505050506040513d602081101561089a57600080fd5b810190808051906020019092919050505010151515610921576040517f08c379a00000000000000000000000000000000000000000000000000000000081526004018080602001828103825260148152602001807f4e6f7420656e6f75676820616c6c6f77616e636500000000000000000000000081525060200191505060405180910390fd5b6109f0816fffffffffffffffffffffffffffffffff16600160003373ffffffffffffffffffffffffffffffffffffffff1673ffffffffffffffffffffffffffffffffffffffff16815260200190815260200160002060008573ffffffffffffffffffffffffffffffffffffffff1673ffffffffffffffffffffffffffffffffffffffff16815260200190815260200160002060009054906101000a90046fffffffffffffffffffffffffffffffff166fffffffffffffffffffffffffffffffff1661107190919063ffffffff16565b508173ffffffffffffffffffffffffffffffffffffffff166323b872dd3330846040518463ffffffff167c0100000000000000000000000000000000000000000000000000000000028152600401808473ffffffffffffffffffffffffffffffffffffffff1673ffffffffffffffffffffffffffffffffffffffff1681526020018373ffffffffffffffffffffffffffffffffffffffff1673ffffffffffffffffffffffffffffffffffffffff168152602001826fffffffffffffffffffffffffffffffff1681526020019350505050602060405180830381600087803b158015610ada57600080fd5b505af1158015610aee573d6000803e3d6000fd5b505050506040513d6020811015610b0457600080fd5b81019080805190602001909291905050501515610b89576040517f08c379a00000000000000000000000000000000000000000000000000000000081526004018080602001828103825260158152602001807f546f6b656e207472616e73666572206661696c6564000000000000000000000081525060200191505060405180910390fd5b8173ffffffffffffffffffffffffffffffffffffffff163373ffffffffffffffffffffffffffffffffffffffff167f2d22ec10582994161eb1eca889a0b6cfef06721c7cbc036243be9c77b55b14478360405180826fffffffffffffffffffffffffffffffff166fffffffffffffffffffffffffffffffff16815260200191505060405180910390a35050565b610c1e61053e565b1515610c2957600080fd5b826fffffffffffffffffffffffffffffffff16600160003373ffffffffffffffffffffffffffffffffffffffff1673ffffffffffffffffffffffffffffffffffffffff16815260200190815260200160002060008773ffffffffffffffffffffffffffffffffffffffff1673ffffffffffffffffffffffffffffffffffffffff16815260200190815260200160002060009054906101000a90046fffffffffffffffffffffffffffffffff166fffffffffffffffffffffffffffffffff1610151515610d83576040517f08c379a00000000000000000000000000000000000000000000000000000000081526004018080602001828103825260268152602001807f417474656d707420746f207769746864726177206d6f7265207468616e20757381526020017f657220686173000000000000000000000000000000000000000000000000000081525060400191505060405180910390fd5b610e52836fffffffffffffffffffffffffffffffff16600160003373ffffffffffffffffffffffffffffffffffffffff1673ffffffffffffffffffffffffffffffffffffffff16815260200190815260200160002060008873ffffffffffffffffffffffffffffffffffffffff1673ffffffffffffffffffffffffffffffffffffffff16815260200190815260200160002060009054906101000a90046fffffffffffffffffffffffffffffffff166fffffffffffffffffffffffffffffffff1661109290919063ffffffff16565b508473ffffffffffffffffffffffffffffffffffffffff1663a9059cbb33856040518363ffffffff167c0100000000000000000000000000000000000000000000000000000000028152600401808373ffffffffffffffffffffffffffffffffffffffff1673ffffffffffffffffffffffffffffffffffffffff168152602001826fffffffffffffffffffffffffffffffff16815260200192505050602060405180830381600087803b158015610f0857600080fd5b505af1158015610f1c573d6000803e3d6000fd5b505050506040513d6020811015610f3257600080fd5b81019080805190602001909291905050501515610fb7576040517f08c379a00000000000000000000000000000000000000000000000000000000081526004018080602001828103825260158152602001807f546f6b656e207472616e73666572206661696c6564000000000000000000000081525060200191505060405180910390fd5b8473ffffffffffffffffffffffffffffffffffffffff163373ffffffffffffffffffffffffffffffffffffffff167ff7c94207a71e9e28815faa70ca42021f47a1d25c25fbec0973eb7beb92f421928560405180826fffffffffffffffffffffffffffffffff166fffffffffffffffffffffffffffffffff16815260200191505060405180910390a35050505050565b61104f61053e565b151561105a57600080fd5b611063816110b4565b50565b600060019050919050565b600080828401905083811015151561108857600080fd5b8091505092915050565b60008282111515156110a357600080fd5b600082840390508091505092915050565b600073ffffffffffffffffffffffffffffffffffffffff168173ffffffffffffffffffffffffffffffffffffffff16141515156110f057600080fd5b8073ffffffffffffffffffffffffffffffffffffffff166000809054906101000a900473ffffffffffffffffffffffffffffffffffffffff1673ffffffffffffffffffffffffffffffffffffffff167f8be0079c531659141344cd1fd0a4f28419497f9722a3daafe3b4186f6b6457e060405160405180910390a3806000806101000a81548173ffffffffffffffffffffffffffffffffffffffff021916908373ffffffffffffffffffffffffffffffffffffffff1602179055505056fea165627a7a723058205d0556e34357861a85a58d67d4156c34244094592666d884ec76207612be47990029",
  "source": "pragma solidity 0.5.0;\n\nimport 'openzeppelin-solidity/contracts/ownership/Ownable.sol';\nimport 'openzeppelin-solidity/contracts/token/ERC20/ERC20.sol';\nimport 'openzeppelin-solidity/contracts/math/SafeMath.sol';\nimport './Verifier.sol';\n\ncontract Main is Ownable, Verifier {\n    using SafeMath for uint256;\n    using SafeMath for uint128;\n\n    mapping (address => mapping (address => uint128 )) tokenBalances;\n    mapping (address => uint256) userKeys;\n    uint256 state;\n    \n    event KeyRegistered(address indexed user, uint256 indexed publicKey);\n    event Deposit(address indexed user, address indexed token, uint128 amount);\n    event Withdraw(address indexed user, address indexed token, uint128 amount);\n    event StateUpdated(uint256 oldState, uint256 newState);\n    event StateRejected(uint256 oldState, uint256 rejectedState);\n    \n    // User Functions\n\n    function registerKey(uint256 _publicKey) public {\n        require(userKeys[msg.sender] == 0, \"User has existing key\");\n        userKeys[msg.sender] = _publicKey;\n    }\n    \n    // Requires approval for ERC20 token first\n    function depositToken(address _token, uint128 _amount) public {\n        require(tokenBalances[msg.sender][_token] == 0, \"Only one deposit per token for now!\");\n        require(ERC20(_token).allowance(msg.sender, address(this)) >= _amount, \"Not enough allowance\");\n        \n        tokenBalances[msg.sender][_token].add(_amount);\n        require(ERC20(_token).transferFrom(msg.sender, address(this), _amount), \"Token transfer failed\");\n        emit Deposit(msg.sender, _token, _amount);\n    }\n    \n    function withdrawToken(address _token, address _recipient, uint128 _amount, uint256 _proof, uint256 _newState) public onlyOwner() {\n        //TODO: We will get this value from the state\n        require(tokenBalances[msg.sender][_token] >= _amount, \"Attempt to withdraw more than user has\");\n\n        tokenBalances[msg.sender][_token].sub(_amount);\n        require(ERC20(_token).transfer(msg.sender, _amount), \"Token transfer failed\");\n        emit Withdraw(msg.sender, _token, _amount);\n    }\n\n    // State Functions\n\n    function getState() public view returns(uint256) {\n        return state;\n    }\n\n    function setState(uint256 _newState) public onlyOwner() {\n        if (verifyState(_newState)) {\n            emit StateUpdated(state, _newState);\n            state = _newState;\n        } else {\n            emit StateRejected(state, _newState);\n        }\n    }\n}\n",
  "sourcePath": "/Users/thomas/Code/xRollup/ethereum/contracts/Main.sol",
  "compiler": {
    "name": "solc",
    "version": "0.5.0+commit.1d4f565a.Emscripten.clang"
  },
  "schemaVersion": "3.0.2",
  "updatedAt": "2019-03-09T15:09:38.957Z",
  "devdoc": {
    "methods": {
      "isOwner()": {
        "return": "true if `msg.sender` is the owner of the contract."
      },
      "owner()": {
        "return": "the address of the owner."
      },
      "renounceOwnership()": {
        "details": "Allows the current owner to relinquish control of the contract."
      },
      "transferOwnership(address)": {
        "details": "Allows the current owner to transfer control of the contract to a newOwner.",
        "params": {
          "newOwner": "The address to transfer ownership to."
        }
      }
    }
  },
  "userdoc": {
    "methods": {
      "renounceOwnership()": {
        "notice": "Renouncing to ownership will leave the contract without an owner. It will not be possible to call the functions with the `onlyOwner` modifier anymore."
      }
    }
  }
}